:100000000C9461000C94C7010C94A0010C947E0028
:100010000C947E000C947E000C947E000C947E0068
:100020000C947E000C947E000C947E000C947E0058
:100030000C947E000C947E000C947E000C947E0048
:100040000C9456010C947E000C947E000C947E005F
:100050000C947E000C947E000C947E000C947E0028
:100060000C947E000C947E00000000002400270009
:100070002A0000000000250028002B0000000000DE
:1000800023002600290004040404040404040202DA
:100090000202020203030303030301020408102007
:1000A0004080010204081020010204081020000012
:1000B0000008000201000003040700000000000027
:1000C000000011241FBECFEFD8E0DEBFCDBF11E08E
:1000D000A0E0B1E0E8E2F9E002C005900D92A8309E
:1000E000B107D9F721E0A8E0B1E001C01D92AF321D
:1000F000B207E1F70E94EE010C9492040C94000008
:1001000081E090E090932801809327010895833047
:1001100081F028F4813099F08230A9F00895873079
:10012000A9F08830C9F08430B1F4809180008F7DCF
:1001300003C0809180008F7780938000089584B5FC
:100140008F7784BD089584B58F7DFBCF8091B000FB
:100150008F778093B00008958091B0008F7DF9CFA4
:10016000CF93DF93282F30E0F901E255FF4F8491C0
:10017000F901E656FF4FD491F901EA57FF4FC491B8
:10018000CC23A1F081110E948700EC2FF0E0EE0F4C
:10019000FF1FE458FF4FA591B491EC91ED2381E04E
:1001A00090E009F480E0DF91CF91089580E090E045
:1001B000FACF1F93CF93DF93282F30E0F901E25558
:1001C000FF4F8491F901E656FF4FD491F901EA57A8
:1001D000FF4FC491CC23A9F0162F81110E948700F4
:1001E000EC2FF0E0EE0FFF1FEE58FF4FA591B491FA
:1001F0008FB7F894EC91111108C0D095DE23DC93F1
:100200008FBFDF91CF911F910895DE2BF8CFCF9351
:10021000DF9390E0FC01E656FF4F24918A579F4FF1
:10022000FC0184918823C9F090E0880F991FFC019C
:10023000E859FF4FA591B491FC01EE58FF4FC591CD
:10024000D49161110DC09FB7F8948C9120958223B1
:100250008C938881282328839FBFDF91CF910895B5
:10026000623051F49FB7F8943C91822F809583239C
:100270008C93E8812E2BEFCF8FB7F894EC912E2B37
:100280002C938FBFEACF8E50806480937C00809146
:100290007A00806480937A0080917A0086FDFCCF9A
:1002A0008091780090917900089508951F920F929F
:1002B0000FB60F9211242F933F938F939F93AF9379
:1002C000BF9380910D0190910E01A0910F01B0910B
:1002D000100130910C0123E0230F2D3758F50196C2
:1002E000A11DB11D20930C0180930D0190930E016F
:1002F000A0930F01B0931001809108019091090122
:10030000A0910A01B0910B010196A11DB11D80932E
:10031000080190930901A0930A01B0930B01BF91CA
:10032000AF919F918F913F912F910F900FBE0F90A2
:100330001F90189526E8230F0296A11DB11DD2CF5C
:100340001F920F920FB60F9211242F933F934F934A
:100350005F936F937F938F939F93AF93BF93EF932D
:10036000FF93E0910201F09103010995FF91EF9154
:10037000BF91AF919F918F917F916F915F914F91BD
:100380003F912F910F900FBE0F901F9018951F92C5
:100390000F920FB60F9211242F933F934F935F93B9
:1003A0006F937F938F939F93AF93BF93EF93FF933D
:1003B000E0910001F09101010995FF91EF91BF914A
:1003C000AF919F918F917F916F915F914F913F91ED
:1003D0002F910F900FBE0F901F901895789484B5B1
:1003E000826084BD84B5816084BD85B5826085BD31
:1003F00085B5816085BD80916E00816080936E00BF
:1004000010928100809181008260809381008091B0
:100410008100816080938100809180008160809361
:1004200080008091B10084608093B1008091B00021
:1004300081608093B00080917A00846080937A001C
:1004400080917A00826080937A0080917A00816046
:1004500080937A0080917A00806880937A0010926D
:10046000C10062E082E00E94070180E890E0909382
:10047000010180930001809169008C7F81608093ED
:100480006900E89A61E083E00E94070161E086E08C
:100490000E94070160E086E00E94D90061E085E0EB
:1004A0000E94070160E085E00E94D90060E084E0DE
:1004B0000E94070188248A9483E0982EA12CB12CF5
:1004C000C0E0D0E011E084E00E94B00090932E01E3
:1004D00080932D012FB7F89480910D0190910E011A
:1004E000A0910F01B09110012FBF409129015091AF
:1004F0002A0160912B0170912C01841B950BA60B96
:10050000B70BC397A105B10508F44CC08091270132
:1005100090912801892B09F445C02FB7F894809158
:100520000D0190910E01A0910F01B09110012FBF0C
:100530008093290190932A01A0932B01B0932C0161
:1005400082E00E94B000892B31F4809105019091E6
:100550000601019789F082E00E94B0008130910588
:10056000E9F42091050130910601232BB9F4909311
:1005700006018093050112C081E090E020912501E1
:1005800030912601232B11F090E080E0909326011A
:100590008093250110920601109205011092280106
:1005A000109227018091250190912601892B09F451
:1005B000ACC061E086E00E94D9008EE00E94430159
:1005C00024EA3BE0DC010E948B04A50194010E9417
:1005D000280429013A017A01690184E1C80ED11C7D
:1005E000E11CF11CC0922101D0922201E092230172
:1005F000F09224018FE00E944301A3019201265F43
:100600003F4F4F4F5F4FDC010E945204A501940100
:100610000E942804DA01C9010A96A11DB11D809328
:100620001D0190931E01A0931F01B0932001C81AD1
:10063000D90AEA0AFB0AC0921901D0921A01E09283
:100640001B01F0921C018FB7F894C0900D01D0905F
:100650000E01E0900F01F09010018FBFC0921501C4
:10066000D0921601E0921701F09218012091040136
:100670008091110190911201A0911301B091140188
:10068000B701A601481B590B6A0B7B0B222329F1EA
:1006900080911D0190911E01A0911F01B091200138
:1006A000481759076A077B0790F061E085E00E94D0
:1006B000D90061E083E00E94D90010920401C09249
:1006C0001101D0921201E0921301F09214012097CF
:1006D00009F4F9CE0E940000F6CE809119019091A4
:1006E0001A01A0911B01B0911C01481759076A0714
:1006F0007B0768F360E085E00E94D90060E083E05A
:100700000E94D90010930401DACF80912D019091BD
:100710002E01892B09F08DC08EE00E94430124EA4E
:100720003BE0DC010E948B04A50194010E94280497
:1007300029013A017A01690184E1C80ED11CE11C4A
:10074000F11CC0922101D0922201E0922301F0928B
:1007500024018FE00E944301A3019201265F3F4FD5
:100760004F4F5F4FDC010E945204A50194010E948B
:100770002804DA01C9010A96A11DB11D80931D014B
:1007800090931E01A0931F01B0932001C81AD90AAB
:10079000EA0AFB0AC0921901D0921A01E0921B01E9
:1007A000F0921C018FB7F894C0900D01D0900E010B
:1007B000E0900F01F09010018FBFC0921501D09210
:1007C0001601E0921701F092180120910401809126
:1007D000110190911201A0911301B0911401B70180
:1007E000A601481B590B6A0B7B0B222389F08091D1
:1007F0001D0190911E01A0911F01B0912001481789
:1008000059076A077B0708F462CF61E086E04FCFA3
:100810008091190190911A01A0911B01B0911C01C6
:10082000481759076A077B0708F451CF60E086E054
:1008300063CF60E085E00E94D90060E083E00E9421
:10084000D90060E086E00E94D900109304013FCFF8
:10085000052E97FB1EF400940E943F0457FD07D01D
:100860000E945A0407FC03D04EF40C943F045095A8
:100870004095309521953F4F4F4F5F4F089590958C
:100880008095709561957F4F8F4F9F4F08950E947F
:100890007C04A59F900DB49F900DA49F800D911D89
:1008A00011240895B7FF0C9447040E944704821B4B
:1008B000930B0895A1E21A2EAA1BBB1BFD010DC0CC
:1008C000AA1FBB1FEE1FFF1FA217B307E407F50700
:1008D00020F0A21BB30BE40BF50B661F771F881FDC
:1008E000991F1A9469F760957095809590959B0172
:1008F000AC01BD01CF010895A29FB001B39FC0011B
:10090000A39F700D811D1124911DB29F700D811D3B
:100910001124911D08950E947C04B7FF0895821B45
:08092000930B0895F894FFCF3A
:08092800550155010101000019
:00000001FF
